{"abi":[{"type":"constructor","inputs":[{"name":"_pool","type":"address","internalType":"address payable"},{"name":"_weth","type":"address","internalType":"address payable"}],"stateMutability":"nonpayable"},{"type":"function","name":"buy","inputs":[{"name":"_id","type":"uint256","internalType":"uint256"}],"outputs":[],"stateMutability":"payable"},{"type":"function","name":"chainlinkfunctionData","inputs":[],"outputs":[],"stateMutability":"nonpayable"},{"type":"function","name":"getAddress","inputs":[{"name":"email","type":"string","internalType":"string"}],"outputs":[{"name":"","type":"address","internalType":"address"}],"stateMutability":"view"},{"type":"function","name":"getBalance","inputs":[],"outputs":[{"name":"","type":"uint256","internalType":"uint256"}],"stateMutability":"view"},{"type":"function","name":"getOrderTime","inputs":[{"name":"_account","type":"address","internalType":"address"},{"name":"_orderId","type":"uint256","internalType":"uint256"}],"outputs":[{"name":"","type":"uint256","internalType":"uint256"}],"stateMutability":"view"},{"type":"function","name":"getShoeRB_Factor","inputs":[{"name":"_shoeId","type":"uint256","internalType":"uint256"}],"outputs":[{"name":"","type":"uint256","internalType":"uint256"}],"stateMutability":"view"},{"type":"function","name":"hasPurchasedShoe","inputs":[{"name":"_account","type":"address","internalType":"address"},{"name":"_shoeId","type":"uint256","internalType":"uint256"}],"outputs":[{"name":"","type":"bool","internalType":"bool"}],"stateMutability":"view"},{"type":"function","name":"linkAddressToSteps","inputs":[{"name":"_email","type":"string","internalType":"string"},{"name":"_account","type":"address","internalType":"address"},{"name":"_steps","type":"uint256","internalType":"uint256"}],"outputs":[],"stateMutability":"nonpayable"},{"type":"function","name":"list","inputs":[{"name":"_id","type":"uint256","internalType":"uint256"},{"name":"_name","type":"string","internalType":"string"},{"name":"_brand","type":"string","internalType":"string"},{"name":"_image","type":"string","internalType":"string"},{"name":"_cost","type":"uint256","internalType":"uint256"},{"name":"_RB_Factor","type":"uint256","internalType":"uint256"},{"name":"_quantity","type":"uint256","internalType":"uint256"}],"outputs":[],"stateMutability":"payable"},{"type":"function","name":"mapEmailToAddress","inputs":[{"name":"_email","type":"string","internalType":"string"},{"name":"_account","type":"address","internalType":"address"}],"outputs":[],"stateMutability":"nonpayable"},{"type":"function","name":"mapEmailToSteps","inputs":[{"name":"_email","type":"string","internalType":"string"},{"name":"_steps","type":"uint256","internalType":"uint256"}],"outputs":[],"stateMutability":"nonpayable"},{"type":"function","name":"pool","inputs":[],"outputs":[{"name":"","type":"address","internalType":"contract PoolModel2"}],"stateMutability":"view"},{"type":"function","name":"s_IsUserRegistred","inputs":[{"name":"","type":"address","internalType":"address"}],"outputs":[{"name":"","type":"bool","internalType":"bool"}],"stateMutability":"view"},{"type":"function","name":"s_hasUserPurchased_A_Shoe","inputs":[{"name":"","type":"address","internalType":"address"},{"name":"","type":"uint256","internalType":"uint256"}],"outputs":[{"name":"","type":"bool","internalType":"bool"}],"stateMutability":"view"},{"type":"function","name":"s_isSoldOut","inputs":[{"name":"","type":"uint256","internalType":"uint256"}],"outputs":[{"name":"","type":"bool","internalType":"bool"}],"stateMutability":"view"},{"type":"function","name":"s_orderCount","inputs":[{"name":"","type":"address","internalType":"address"}],"outputs":[{"name":"","type":"uint256","internalType":"uint256"}],"stateMutability":"view"},{"type":"function","name":"s_orders","inputs":[{"name":"","type":"address","internalType":"address"},{"name":"","type":"uint256","internalType":"uint256"}],"outputs":[{"name":"time","type":"uint256","internalType":"uint256"},{"name":"shoe","type":"tuple","internalType":"struct MarketPlace.Shoe","components":[{"name":"id","type":"uint256","internalType":"uint256"},{"name":"name","type":"string","internalType":"string"},{"name":"brand","type":"string","internalType":"string"},{"name":"image","type":"string","internalType":"string"},{"name":"cost","type":"uint256","internalType":"uint256"},{"name":"RB_Factor","type":"uint256","internalType":"uint256"},{"name":"quantity","type":"uint256","internalType":"uint256"},{"name":"lister","type":"address","internalType":"address"}]}],"stateMutability":"view"},{"type":"function","name":"s_owner","inputs":[],"outputs":[{"name":"","type":"address","internalType":"address"}],"stateMutability":"view"},{"type":"function","name":"s_shoes","inputs":[{"name":"","type":"uint256","internalType":"uint256"}],"outputs":[{"name":"id","type":"uint256","internalType":"uint256"},{"name":"name","type":"string","internalType":"string"},{"name":"brand","type":"string","internalType":"string"},{"name":"image","type":"string","internalType":"string"},{"name":"cost","type":"uint256","internalType":"uint256"},{"name":"RB_Factor","type":"uint256","internalType":"uint256"},{"name":"quantity","type":"uint256","internalType":"uint256"},{"name":"lister","type":"address","internalType":"address"}],"stateMutability":"view"},{"type":"function","name":"s_stepsByUserAtMoment","inputs":[{"name":"","type":"address","internalType":"address"},{"name":"","type":"uint256","internalType":"uint256"}],"outputs":[{"name":"","type":"uint256","internalType":"uint256"}],"stateMutability":"view"},{"type":"function","name":"selectShoe","inputs":[{"name":"_shoeId","type":"uint256","internalType":"uint256"}],"outputs":[{"name":"","type":"tuple","internalType":"struct MarketPlace.Shoe","components":[{"name":"id","type":"uint256","internalType":"uint256"},{"name":"name","type":"string","internalType":"string"},{"name":"brand","type":"string","internalType":"string"},{"name":"image","type":"string","internalType":"string"},{"name":"cost","type":"uint256","internalType":"uint256"},{"name":"RB_Factor","type":"uint256","internalType":"uint256"},{"name":"quantity","type":"uint256","internalType":"uint256"},{"name":"lister","type":"address","internalType":"address"}]}],"stateMutability":"view"},{"type":"function","name":"weth","inputs":[],"outputs":[{"name":"","type":"address","internalType":"contract IWETH"}],"stateMutability":"view"},{"type":"event","name":"Buy","inputs":[{"name":"buyer","type":"address","indexed":false,"internalType":"address"},{"name":"orderId","type":"uint256","indexed":false,"internalType":"uint256"},{"name":"shoeId","type":"uint256","indexed":false,"internalType":"uint256"},{"name":"RB_Factor","type":"uint256","indexed":false,"internalType":"uint256"},{"name":"purchasedOrNot","type":"bool","indexed":false,"internalType":"bool"}],"anonymous":false},{"type":"event","name":"EmailToAddressMapped","inputs":[{"name":"emailHash","type":"bytes32","indexed":true,"internalType":"bytes32"},{"name":"userAddress","type":"address","indexed":true,"internalType":"address"}],"anonymous":false},{"type":"event","name":"EmailToStepsMapped","inputs":[{"name":"emailHash","type":"bytes32","indexed":true,"internalType":"bytes32"},{"name":"userAddress","type":"uint256","indexed":true,"internalType":"uint256"}],"anonymous":false},{"type":"event","name":"List","inputs":[{"name":"id","type":"uint256","indexed":false,"internalType":"uint256"},{"name":"name","type":"string","indexed":false,"internalType":"string"},{"name":"brand","type":"string","indexed":false,"internalType":"string"},{"name":"image","type":"string","indexed":false,"internalType":"string"},{"name":"cost","type":"uint256","indexed":false,"internalType":"uint256"},{"name":"RB_Factor","type":"uint256","indexed":false,"internalType":"uint256"},{"name":"_quantity","type":"uint256","indexed":false,"internalType":"uint256"},{"name":"lister","type":"address","indexed":false,"internalType":"address"}],"anonymous":false}],"bytecode":{"object":"0x60c06040523480156200001157600080fd5b5060405162001fd938038062001fd983398101604081905262000034916200007b565b600080546001600160a01b031916331790556001600160a01b039182166080521660a052620000b3565b80516001600160a01b03811681146200007657600080fd5b919050565b600080604083850312156200008f57600080fd5b6200009a836200005e565b9150620000aa602084016200005e565b90509250929050565b60805160a051611eeb620000ee600039600081816102580152818161157a015261162f0152600081816101ce01526116000152611eeb6000f3fe6080604052600436106101355760003560e01c8063bf40fac1116100ab578063e39782401161006f578063e3978240146103f1578063ec12d79914610411578063eea8a7e814610441578063f4bf9f4d14610454578063fdd972f314610474578063febacd70146104af57600080fd5b8063bf40fac114610341578063d96a094a14610361578063d9b7b54614610374578063da592ff914610394578063e0fadec0146103c457600080fd5b8063352934e2116100fd578063352934e2146102185780633fc8cef31461024657806352f771fb1461027a5780636b855ef4146102ae57806398995e67146102db578063ba1c381e1461032157600080fd5b80630d6a94e51461013a57806312065fe01461017f578063122312341461019c57806316f0115b146101bc5780632859d49514610208575b600080fd5b34801561014657600080fd5b5061016a6101553660046117e0565b60026020526000908152604090205460ff1681565b60405190151581526020015b60405180910390f35b34801561018b57600080fd5b50475b604051908152602001610176565b3480156101a857600080fd5b5061018e6101b7366004611815565b6104e7565b3480156101c857600080fd5b506101f07f000000000000000000000000000000000000000000000000000000000000000081565b6040516001600160a01b039091168152602001610176565b34801561021457600080fd5b505b005b34801561022457600080fd5b50610238610233366004611815565b610512565b604051610176929190611916565b34801561025257600080fd5b506101f07f000000000000000000000000000000000000000000000000000000000000000081565b34801561028657600080fd5b5061029a6102953660046117e0565b610740565b604051610176989796959493929190611937565b3480156102ba57600080fd5b506102ce6102c93660046117e0565b610922565b60405161017691906119aa565b3480156102e757600080fd5b5061016a6102f6366004611815565b6001600160a01b03919091166000908152600860209081526040808320938352929052205460ff1690565b34801561032d57600080fd5b5061021661033c366004611a0d565b610bf2565b34801561034d57600080fd5b506101f061035c366004611a61565b610d35565b61021661036f3660046117e0565b610d9b565b34801561038057600080fd5b5061021661038f366004611aa3565b611316565b3480156103a057600080fd5b5061018e6103af3660046117e0565b60009081526001602052604090206005015490565b3480156103d057600080fd5b5061018e6103df366004611aff565b60046020526000908152604090205481565b3480156103fd57600080fd5b506000546101f0906001600160a01b031681565b34801561041d57600080fd5b5061016a61042c366004611aff565b60096020526000908152604090205460ff1681565b61021661044f366004611bbd565b6113e9565b34801561046057600080fd5b5061021661046f366004611c6a565b6116ed565b34801561048057600080fd5b5061016a61048f366004611815565b600860209081526000928352604080842090915290825290205460ff1681565b3480156104bb57600080fd5b5061018e6104ca366004611815565b600560209081526000928352604080842090915290825290205481565b6001600160a01b03821660009081526003602090815260408083208484529091529020545b92915050565b60036020528160005260406000206020528060005260406000206000915091505080600001549080600101604051806101000160405290816000820154815260200160018201805461056390611cb6565b80601f016020809104026020016040519081016040528092919081815260200182805461058f90611cb6565b80156105dc5780601f106105b1576101008083540402835291602001916105dc565b820191906000526020600020905b8154815290600101906020018083116105bf57829003601f168201915b505050505081526020016002820180546105f590611cb6565b80601f016020809104026020016040519081016040528092919081815260200182805461062190611cb6565b801561066e5780601f106106435761010080835404028352916020019161066e565b820191906000526020600020905b81548152906001019060200180831161065157829003601f168201915b5050505050815260200160038201805461068790611cb6565b80601f01602080910402602001604051908101604052809291908181526020018280546106b390611cb6565b80156107005780601f106106d557610100808354040283529160200191610700565b820191906000526020600020905b8154815290600101906020018083116106e357829003601f168201915b50505091835250506004820154602082015260058201546040820152600682015460608201526007909101546001600160a01b0316608090910152905082565b60016020819052600091825260409091208054918101805461076190611cb6565b80601f016020809104026020016040519081016040528092919081815260200182805461078d90611cb6565b80156107da5780601f106107af576101008083540402835291602001916107da565b820191906000526020600020905b8154815290600101906020018083116107bd57829003601f168201915b5050505050908060020180546107ef90611cb6565b80601f016020809104026020016040519081016040528092919081815260200182805461081b90611cb6565b80156108685780601f1061083d57610100808354040283529160200191610868565b820191906000526020600020905b81548152906001019060200180831161084b57829003601f168201915b50505050509080600301805461087d90611cb6565b80601f01602080910402602001604051908101604052809291908181526020018280546108a990611cb6565b80156108f65780601f106108cb576101008083540402835291602001916108f6565b820191906000526020600020905b8154815290600101906020018083116108d957829003601f168201915b50505050600483015460058401546006850154600790950154939491939092506001600160a01b031688565b6109736040518061010001604052806000815260200160608152602001606081526020016060815260200160008152602001600081526020016000815260200160006001600160a01b031681525090565b33600090815260086020908152604080832085845290915290205460ff166109e25760405162461bcd60e51b815260206004820152601860248201527f596f7520646f206e6f74206f776e20746869732073686f65000000000000000060448201526064015b60405180910390fd5b6000828152600160208181526040928390208351610100810190945280548452918201805491840191610a1490611cb6565b80601f0160208091040260200160405190810160405280929190818152602001828054610a4090611cb6565b8015610a8d5780601f10610a6257610100808354040283529160200191610a8d565b820191906000526020600020905b815481529060010190602001808311610a7057829003601f168201915b50505050508152602001600282018054610aa690611cb6565b80601f0160208091040260200160405190810160405280929190818152602001828054610ad290611cb6565b8015610b1f5780601f10610af457610100808354040283529160200191610b1f565b820191906000526020600020905b815481529060010190602001808311610b0257829003601f168201915b50505050508152602001600382018054610b3890611cb6565b80601f0160208091040260200160405190810160405280929190818152602001828054610b6490611cb6565b8015610bb15780601f10610b8657610100808354040283529160200191610bb1565b820191906000526020600020905b815481529060010190602001808311610b9457829003601f168201915b50505091835250506004820154602082015260058201546040820152600682015460608201526007909101546001600160a01b031660809091015292915050565b6001600160a01b038116610c3a5760405162461bcd60e51b815260206004820152600f60248201526e496e76616c6964206164647265737360881b60448201526064016109d9565b6000610c7b84848080601f0160208091040260200160405190810160405280939291908181526020018383808284376000920191909152506117b092505050565b6000818152600660205260409020549091506001600160a01b031615610cda5760405162461bcd60e51b8152602060048201526014602482015273115b585a5b08185b1c9958591e481b1a5b9ad95960621b60448201526064016109d9565b60008181526006602052604080822080546001600160a01b0319166001600160a01b0386169081179091559051909183917f8cc36e363e4c36b19d9c4c410cf5e54e43f2620cdc30407e2b3b3eadbbcc8a529190a350505050565b600060066000610d7a85858080601f0160208091040260200160405190810160405280939291908181526020018383808284376000920191909152506117b092505050565b81526020810191909152604001600020546001600160a01b03169392505050565b600081815260026020526040902054819060ff1615610dec5760405162461bcd60e51b815260206004820152600d60248201526c14da1bd9481cdbdb19081bdd5d609a1b60448201526064016109d9565b600082815260016020818152604080842081516101008101909252805482529283018054919392840191610e1f90611cb6565b80601f0160208091040260200160405190810160405280929190818152602001828054610e4b90611cb6565b8015610e985780601f10610e6d57610100808354040283529160200191610e98565b820191906000526020600020905b815481529060010190602001808311610e7b57829003601f168201915b50505050508152602001600282018054610eb190611cb6565b80601f0160208091040260200160405190810160405280929190818152602001828054610edd90611cb6565b8015610f2a5780601f10610eff57610100808354040283529160200191610f2a565b820191906000526020600020905b815481529060010190602001808311610f0d57829003601f168201915b50505050508152602001600382018054610f4390611cb6565b80601f0160208091040260200160405190810160405280929190818152602001828054610f6f90611cb6565b8015610fbc5780601f10610f9157610100808354040283529160200191610fbc565b820191906000526020600020905b815481529060010190602001808311610f9f57829003601f168201915b50505091835250506004820154602082015260058201546040820152600682015460608201526007909101546001600160a01b03166080918201528101519091503410156110435760405162461bcd60e51b8152602060048201526014602482015273125b9cdd59999a58da595b9d081c185e5b595b9d60621b60448201526064016109d9565b60008160c00151116110865760405162461bcd60e51b815260206004820152600c60248201526b4f7574206f662073746f636b60a01b60448201526064016109d9565b3360009081526004602052604081208054916110a183611d06565b9091555050604080518082018252428152602080820184815233600090815260038352848120600484528582205482528352939093208251815592518051600185019081559181015192939290919060028401906110ff9082611d70565b50604082015160028201906111149082611d70565b50606082015160038201906111299082611d70565b506080820151600482015560a0820151600582015560c082015160068083019190915560e090920151600790910180546001600160a01b0319166001600160a01b03909216919091179055600086815260016020526040812090910180549350915061119483611e30565b909155505033600081815260086020908152604080832087845282528083208054600160ff1991821681179092559484526009835281842080549095168117909455868352929052908120600601549003611203576000838152600260205260409020805460ff191660011790555b3360008181526004602090815260409182902054845160a080870151855196875293860192909252928401929092526060830152600160808301527fa2cdb6bb17af97334cd5c17da6c5507a60d8510c1ff9c38203b1c12c67dcceda910160405180910390a160008160e001516001600160a01b03163460405160006040518083038185875af1925050503d80600081146112ba576040519150601f19603f3d011682016040523d82523d6000602084013e6112bf565b606091505b50509050806113105760405162461bcd60e51b815260206004820152601860248201527f5061796d656e7420746f206c6973746572206661696c6564000000000000000060448201526064016109d9565b50505050565b600061135785858080601f0160208091040260200160405190810160405280939291908181526020018383808284376000920191909152506117b092505050565b6000818152600660205260409020549091506001600160a01b038481169116146113b25760405162461bcd60e51b815260206004820152600c60248201526b496e76616c6964204461746160a01b60448201526064016109d9565b6000908152600760209081526040808320546001600160a01b03909516835260058252808320428452909152902091909155505050565b60646113f684600a611e47565b6114009190611e5e565b3410156114425760405162461bcd60e51b815260206004820152601060248201526f496e73756666696369656e742066656560801b60448201526064016109d9565b60408051610100810182528881526020808201898152828401899052606083018890526080830187905260a0830186905260c083018590523360e084015260008b815260019283905293909320825181559251919291908201906114a69082611d70565b50604082015160028201906114bb9082611d70565b50606082015160038201906114d09082611d70565b506080820151600482015560a0820151600582015560c0820151600682015560e090910151600790910180546001600160a01b0319166001600160a01b039092169190911790556040517fc9540d7cc5c84ca136699dfa557d7be7e930dc1479e17e7f9c998b8fca2abeeb906115559089908990899089908990899089903390611937565b60405180910390a16000606461156c85600a611e47565b6115769190611e5e565b90507f00000000000000000000000000000000000000000000000000000000000000006001600160a01b031663d0e30db0826040518263ffffffff1660e01b81526004016000604051808303818588803b1580156115d357600080fd5b505af11580156115e7573d6000803e3d6000fd5b505060405163a9059cbb60e01b81526001600160a01b037f000000000000000000000000000000000000000000000000000000000000000081166004830152602482018690527f000000000000000000000000000000000000000000000000000000000000000016935063a9059cbb925060440190506020604051808303816000875af115801561167c573d6000803e3d6000fd5b505050506040513d601f19601f820116820180604052508101906116a09190611e80565b6116e35760405162461bcd60e51b815260206004820152601460248201527315d15512081d1c985b9cd9995c8819985a5b195960621b60448201526064016109d9565b5050505050505050565b600061172e84848080601f0160208091040260200160405190810160405280939291908181526020018383808284376000920191909152506117b092505050565b9050600081900361176f5760405162461bcd60e51b815260206004820152600b60248201526a115b9d195c88195b585a5b60aa1b60448201526064016109d9565b60008181526007602052604080822084905551839183917f70ce7b7c18b879a3dad34c1b8bcc05533f2497f411ab1aec70702347c5f11a4f9190a350505050565b6000816040516020016117c39190611ea2565b604051602081830303815290604052805190602001209050919050565b6000602082840312156117f257600080fd5b5035919050565b80356001600160a01b038116811461181057600080fd5b919050565b6000806040838503121561182857600080fd5b611831836117f9565b946020939093013593505050565b6000815180845260005b8181101561186557602081850181015186830182015201611849565b506000602082860101526020601f19601f83011685010191505092915050565b60006101008251845260208301518160208601526118a58286018261183f565b915050604083015184820360408601526118bf828261183f565b915050606083015184820360608601526118d9828261183f565b6080858101519087015260a0808601519087015260c0808601519087015260e0948501516001600160a01b03169490950193909352509192915050565b82815260406020820152600061192f6040830184611885565b949350505050565b60006101008a83528060208401526119518184018b61183f565b90508281036040840152611965818a61183f565b90508281036060840152611979818961183f565b6080840197909752505060a081019390935260c08301919091526001600160a01b031660e090910152949350505050565b6020815260006119bd6020830184611885565b9392505050565b60008083601f8401126119d657600080fd5b50813567ffffffffffffffff8111156119ee57600080fd5b602083019150836020828501011115611a0657600080fd5b9250929050565b600080600060408486031215611a2257600080fd5b833567ffffffffffffffff811115611a3957600080fd5b611a45868287016119c4565b9094509250611a589050602085016117f9565b90509250925092565b60008060208385031215611a7457600080fd5b823567ffffffffffffffff811115611a8b57600080fd5b611a97858286016119c4565b90969095509350505050565b60008060008060608587031215611ab957600080fd5b843567ffffffffffffffff811115611ad057600080fd5b611adc878288016119c4565b9095509350611aef9050602086016117f9565b9396929550929360400135925050565b600060208284031215611b1157600080fd5b6119bd826117f9565b634e487b7160e01b600052604160045260246000fd5b600082601f830112611b4157600080fd5b813567ffffffffffffffff80821115611b5c57611b5c611b1a565b604051601f8301601f19908116603f01168101908282118183101715611b8457611b84611b1a565b81604052838152866020858801011115611b9d57600080fd5b836020870160208301376000602085830101528094505050505092915050565b600080600080600080600060e0888a031215611bd857600080fd5b87359650602088013567ffffffffffffffff80821115611bf757600080fd5b611c038b838c01611b30565b975060408a0135915080821115611c1957600080fd5b611c258b838c01611b30565b965060608a0135915080821115611c3b57600080fd5b50611c488a828b01611b30565b979a969950949760808101359660a0820135965060c090910135945092505050565b600080600060408486031215611c7f57600080fd5b833567ffffffffffffffff811115611c9657600080fd5b611ca2868287016119c4565b909790965060209590950135949350505050565b600181811c90821680611cca57607f821691505b602082108103611cea57634e487b7160e01b600052602260045260246000fd5b50919050565b634e487b7160e01b600052601160045260246000fd5b600060018201611d1857611d18611cf0565b5060010190565b601f821115611d6b576000816000526020600020601f850160051c81016020861015611d485750805b601f850160051c820191505b81811015611d6757828155600101611d54565b5050505b505050565b815167ffffffffffffffff811115611d8a57611d8a611b1a565b611d9e81611d988454611cb6565b84611d1f565b602080601f831160018114611dd35760008415611dbb5750858301515b600019600386901b1c1916600185901b178555611d67565b600085815260208120601f198616915b82811015611e0257888601518255948401946001909101908401611de3565b5085821015611e205787850151600019600388901b60f8161c191681555b5050505050600190811b01905550565b600081611e3f57611e3f611cf0565b506000190190565b808202811582820484141761050c5761050c611cf0565b600082611e7b57634e487b7160e01b600052601260045260246000fd5b500490565b600060208284031215611e9257600080fd5b815180151581146119bd57600080fd5b6020815260006119bd602083018461183f56fea264697066735822122091a40c45947988ecacf81dc0cbadd6fd9afe57394afaf0f95ed75713a0f7db0e64736f6c63430008180033","linkReferences":{}},"methodIdentifiers":{"buy(uint256)":"d96a094a","chainlinkfunctionData()":"2859d495","getAddress(string)":"bf40fac1","getBalance()":"12065fe0","getOrderTime(address,uint256)":"12231234","getShoeRB_Factor(uint256)":"da592ff9","hasPurchasedShoe(address,uint256)":"98995e67","linkAddressToSteps(string,address,uint256)":"d9b7b546","list(uint256,string,string,string,uint256,uint256,uint256)":"eea8a7e8","mapEmailToAddress(string,address)":"ba1c381e","mapEmailToSteps(string,uint256)":"f4bf9f4d","pool()":"16f0115b","s_IsUserRegistred(address)":"ec12d799","s_hasUserPurchased_A_Shoe(address,uint256)":"fdd972f3","s_isSoldOut(uint256)":"0d6a94e5","s_orderCount(address)":"e0fadec0","s_orders(address,uint256)":"352934e2","s_owner()":"e3978240","s_shoes(uint256)":"52f771fb","s_stepsByUserAtMoment(address,uint256)":"febacd70","selectShoe(uint256)":"6b855ef4","weth()":"3fc8cef3"},"id":26}