{"abi":[{"type":"constructor","inputs":[{"name":"_wethToken","type":"address","internalType":"address"},{"name":"_rbToken","type":"address","internalType":"address"}],"stateMutability":"nonpayable"},{"type":"function","name":"TOLERANCE_MARGIN","inputs":[],"outputs":[{"name":"","type":"uint256","internalType":"uint256"}],"stateMutability":"view"},{"type":"function","name":"addLiquidity","inputs":[],"outputs":[],"stateMutability":"nonpayable"},{"type":"function","name":"balanceOf","inputs":[{"name":"","type":"address","internalType":"address"}],"outputs":[{"name":"","type":"uint256","internalType":"uint256"}],"stateMutability":"view"},{"type":"function","name":"i_rbToken","inputs":[],"outputs":[{"name":"","type":"address","internalType":"contract IERC20"}],"stateMutability":"view"},{"type":"function","name":"i_wethToken","inputs":[],"outputs":[{"name":"","type":"address","internalType":"contract IERC20"}],"stateMutability":"view"},{"type":"function","name":"s_owner","inputs":[],"outputs":[{"name":"","type":"address","internalType":"address"}],"stateMutability":"view"},{"type":"function","name":"s_rbReserve","inputs":[],"outputs":[{"name":"","type":"uint256","internalType":"uint256"}],"stateMutability":"view"},{"type":"function","name":"s_totalSupply","inputs":[],"outputs":[{"name":"","type":"uint256","internalType":"uint256"}],"stateMutability":"view"},{"type":"function","name":"s_wethReserve","inputs":[],"outputs":[{"name":"","type":"uint256","internalType":"uint256"}],"stateMutability":"view"},{"type":"function","name":"setIntialBalanceOfpool","inputs":[{"name":"_amount","type":"uint256","internalType":"uint256"}],"outputs":[],"stateMutability":"nonpayable"},{"type":"function","name":"swap","inputs":[{"name":"_tokenIn","type":"address","internalType":"address"},{"name":"_amountIn","type":"uint256","internalType":"uint256"}],"outputs":[{"name":"amountOut","type":"uint256","internalType":"uint256"}],"stateMutability":"nonpayable"}],"bytecode":{"object":"0x60c060405234801561001057600080fd5b50604051610d6b380380610d6b83398101604081905261002f91610074565b600480546001600160a01b031916331790556001600160a01b039182166080521660a0526100a7565b80516001600160a01b038116811461006f57600080fd5b919050565b6000806040838503121561008757600080fd5b61009083610058565b915061009e60208401610058565b90509250929050565b60805160a051610c2f61013c6000396000818161018b015281816101cf0152818161025a0152818161039d01528181610458015281816104c6015281816107ae01528181610833015261094601526000818161010d015281816102e5015281816103620152818161041601528181610479015281816104a5015281816106f8015281816108b00152610a310152610c2f6000f3fe608060405234801561001057600080fd5b50600436106100a95760003560e01c8063c322cf9c11610071578063c322cf9c14610147578063d004f0f71461014f578063d4e5140014610162578063e39782401461016b578063e8078d941461017e578063f4cb3dd61461018657600080fd5b80630ccd6e75146100ae5780631ce2c6e9146100c35780636a74a0fc146100df57806370a08231146100e85780639e18159b14610108575b600080fd5b6100c16100bc366004610ac9565b6101ad565b005b6100cc60005481565b6040519081526020015b60405180910390f35b6100cc60025481565b6100cc6100f6366004610afe565b60036020526000908152604090205481565b61012f7f000000000000000000000000000000000000000000000000000000000000000081565b6040516001600160a01b0390911681526020016100d6565b6100cc606481565b6100cc61015d366004610b19565b61035e565b6100cc60015481565b60045461012f906001600160a01b031681565b6100c16106cb565b61012f7f000000000000000000000000000000000000000000000000000000000000000081565b6040516323b872dd60e01b8152336004820152306024820152604481018290527f00000000000000000000000000000000000000000000000000000000000000006001600160a01b0316906323b872dd906064016020604051808303816000875af1158015610220573d6000803e3d6000fd5b505050506040513d601f19601f820116820180604052508101906102449190610b43565b506040516370a0823160e01b81523060048201527f00000000000000000000000000000000000000000000000000000000000000006001600160a01b0316906370a0823190602401602060405180830381865afa1580156102a9573d6000803e3d6000fd5b505050506040513d601f19601f820116820180604052508101906102cd9190610b65565b6001556040516370a0823160e01b81523060048201527f00000000000000000000000000000000000000000000000000000000000000006001600160a01b0316906370a0823190602401602060405180830381865afa158015610334573d6000803e3d6000fd5b505050506040513d601f19601f820116820180604052508101906103589190610b65565b60005550565b60007f00000000000000000000000000000000000000000000000000000000000000006001600160a01b0316836001600160a01b031614806103d157507f00000000000000000000000000000000000000000000000000000000000000006001600160a01b0316836001600160a01b0316145b6104125760405162461bcd60e51b815260206004820152600d60248201526c34b73b30b634b2103a37b5b2b760991b60448201526064015b60405180910390fd5b60007f00000000000000000000000000000000000000000000000000000000000000006001600160a01b0316846001600160a01b0316149050600080600080846104a3577f00000000000000000000000000000000000000000000000000000000000000007f00000000000000000000000000000000000000000000000000000000000000006001546000546104ec565b7f00000000000000000000000000000000000000000000000000000000000000007f00000000000000000000000000000000000000000000000000000000000000006000546001545b6040516323b872dd60e01b8152336004820152306024820152604481018c9052939750919550935091506001600160a01b038516906323b872dd906064016020604051808303816000875af1158015610549573d6000803e3d6000fd5b505050506040513d601f19601f8201168201806040525081019061056d9190610b43565b506040516370a0823160e01b815230600482015260009083906001600160a01b038716906370a0823190602401602060405180830381865afa1580156105b7573d6000803e3d6000fd5b505050506040513d601f19601f820116820180604052508101906105db9190610b65565b6105e59190610b94565b90506103e86105f6826103e5610bad565b6106009190610bc4565b965060008087610623576106148985610b94565b61061e8487610be6565b610637565b61062d8386610be6565b6106378a86610b94565b9150915061064b8282600091909155600155565b60405163a9059cbb60e01b8152336004820152602481018a90526001600160a01b0387169063a9059cbb906044016020604051808303816000875af1158015610698573d6000803e3d6000fd5b505050506040513d601f19601f820116820180604052508101906106bc9190610b43565b50505050505050505092915050565b60006106d56109bf565b6040516370a0823160e01b81523060048201529091506000906001600160a01b037f000000000000000000000000000000000000000000000000000000000000000016906370a0823190602401602060405180830381865afa15801561073f573d6000803e3d6000fd5b505050506040513d601f19601f820116820180604052508101906107639190610b65565b90506064600054836107759190610bad565b826001546107839190610bad565b61078d9190610b94565b10610817576040516340c10f1960e01b8152306004820152602481018390527f00000000000000000000000000000000000000000000000000000000000000006001600160a01b0316906340c10f1990604401600060405180830381600087803b1580156107fa57600080fd5b505af115801561080e573d6000803e3d6000fd5b50505050610898565b6040516340c10f1960e01b8152306004820152600a60248201527f00000000000000000000000000000000000000000000000000000000000000006001600160a01b0316906340c10f1990604401600060405180830381600087803b15801561087f57600080fd5b505af1158015610893573d6000803e3d6000fd5b505050505b6040516370a0823160e01b81523060048201526000907f00000000000000000000000000000000000000000000000000000000000000006001600160a01b0316906370a0823190602401602060405180830381865afa1580156108ff573d6000803e3d6000fd5b505050506040513d601f19601f820116820180604052508101906109239190610b65565b6040516370a0823160e01b81523060048201529091506000906001600160a01b037f000000000000000000000000000000000000000000000000000000000000000016906370a0823190602401602060405180830381865afa15801561098d573d6000803e3d6000fd5b505050506040513d601f19601f820116820180604052508101906109b19190610b65565b600092909255506001555050565b6000806000541180156109d457506000600154115b610a195760405162461bcd60e51b8152602060048201526016602482015275735f776574685265736572766520697320656d70747960501b6044820152606401610409565b6040516370a0823160e01b81523060048201526000907f00000000000000000000000000000000000000000000000000000000000000006001600160a01b0316906370a0823190602401602060405180830381865afa158015610a80573d6000803e3d6000fd5b505050506040513d601f19601f82011682018060405250810190610aa49190610b65565b90506000805482600154610ab89190610bad565b610ac29190610bc4565b9392505050565b600060208284031215610adb57600080fd5b5035919050565b80356001600160a01b0381168114610af957600080fd5b919050565b600060208284031215610b1057600080fd5b610ac282610ae2565b60008060408385031215610b2c57600080fd5b610b3583610ae2565b946020939093013593505050565b600060208284031215610b5557600080fd5b81518015158114610ac257600080fd5b600060208284031215610b7757600080fd5b5051919050565b634e487b7160e01b600052601160045260246000fd5b81810381811115610ba757610ba7610b7e565b92915050565b8082028115828204841417610ba757610ba7610b7e565b600082610be157634e487b7160e01b600052601260045260246000fd5b500490565b80820180821115610ba757610ba7610b7e56fea26469706673582212203491c6937fcf35eb1fd5c05686f8bf13ef82c75802bf0ec1da13f75cb6b206bc64736f6c63430008180033","linkReferences":{}},"methodIdentifiers":{"TOLERANCE_MARGIN()":"c322cf9c","addLiquidity()":"e8078d94","balanceOf(address)":"70a08231","i_rbToken()":"f4cb3dd6","i_wethToken()":"9e18159b","s_owner()":"e3978240","s_rbReserve()":"d4e51400","s_totalSupply()":"6a74a0fc","s_wethReserve()":"1ce2c6e9","setIntialBalanceOfpool(uint256)":"0ccd6e75","swap(address,uint256)":"d004f0f7"},"id":35}