{"abi":[{"type":"constructor","inputs":[{"name":"_rewardToken","type":"address","internalType":"address"},{"name":"_marketPlace","type":"address","internalType":"address"},{"name":"_pool","type":"address","internalType":"address"}],"stateMutability":"nonpayable"},{"type":"function","name":"SCALING_FACTOR","inputs":[],"outputs":[{"name":"","type":"uint256","internalType":"uint256"}],"stateMutability":"view"},{"type":"function","name":"calculateReward","inputs":[{"name":"_account","type":"address","internalType":"address"},{"name":"_shoeId","type":"uint256","internalType":"uint256"},{"name":"_steps","type":"uint256","internalType":"uint256"}],"outputs":[{"name":"","type":"uint256","internalType":"uint256"}],"stateMutability":"nonpayable"},{"type":"function","name":"calculateSharesOfUser","inputs":[{"name":"_account","type":"address","internalType":"address"},{"name":"_shoeId","type":"uint256","internalType":"uint256"}],"outputs":[{"name":"","type":"uint256","internalType":"uint256"}],"stateMutability":"nonpayable"},{"type":"function","name":"claimReward","inputs":[{"name":"_shoeId","type":"uint256","internalType":"uint256"},{"name":"_time","type":"uint256","internalType":"uint256"},{"name":"_steps","type":"uint256","internalType":"uint256"}],"outputs":[],"stateMutability":"nonpayable"},{"type":"function","name":"createMockData","inputs":[{"name":"_mock_account","type":"address","internalType":"address"},{"name":"_mock_shoeId","type":"uint256","internalType":"uint256"},{"name":"_mock_steps","type":"uint256","internalType":"uint256"}],"outputs":[],"stateMutability":"nonpayable"},{"type":"function","name":"i_marketplace","inputs":[],"outputs":[{"name":"","type":"address","internalType":"contract MarketPlace"}],"stateMutability":"view"},{"type":"function","name":"i_rbToken","inputs":[],"outputs":[{"name":"","type":"address","internalType":"contract IERC20"}],"stateMutability":"view"},{"type":"function","name":"pool","inputs":[],"outputs":[{"name":"","type":"address","internalType":"contract PoolModel2"}],"stateMutability":"view"},{"type":"function","name":"s_startingTime","inputs":[{"name":"","type":"address","internalType":"address"}],"outputs":[{"name":"","type":"uint256","internalType":"uint256"}],"stateMutability":"view"},{"type":"function","name":"s_userStepsAtMoment","inputs":[{"name":"","type":"address","internalType":"address"},{"name":"","type":"uint256","internalType":"uint256"}],"outputs":[{"name":"","type":"uint256","internalType":"uint256"}],"stateMutability":"view"},{"type":"function","name":"swaprbToken","inputs":[],"outputs":[],"stateMutability":"nonpayable"},{"type":"function","name":"totalStepsInPeriod_ByUser","inputs":[{"name":"_account","type":"address","internalType":"address"},{"name":"_shoeId","type":"uint256","internalType":"uint256"}],"outputs":[{"name":"","type":"uint256","internalType":"uint256"}],"stateMutability":"nonpayable"}],"bytecode":{"object":"0x60e060405234801561001057600080fd5b50604051610ac7380380610ac783398101604081905261002f91610068565b6001600160a01b0392831660805290821660a0521660c0526100ab565b80516001600160a01b038116811461006357600080fd5b919050565b60008060006060848603121561007d57600080fd5b6100868461004c565b92506100946020850161004c565b91506100a26040850161004c565b90509250925092565b60805160a05160c0516109b66101116000396000818160fc015281816102b301526106460152600081816101f401528181610224015281816103d301526107af0152600081816101cd015281816104cb0152818161055f015261067001526109b66000f3fe608060405234801561001057600080fd5b50600436106100b45760003560e01c80637388e485116100715780637388e48514610191578063a24f4f40146101a4578063c88fbe93146101ac578063ef4cadc5146101bf578063f4cb3dd6146101c8578063f4d3ad34146101ef57600080fd5b806301bc82a5146100b957806316f0115b146100f757806328d1c5b9146101365780632c32c360146101565780634314d667146101695780635725c4101461017e575b600080fd5b6100e46100c7366004610838565b600160209081526000928352604080842090915290825290205481565b6040519081526020015b60405180910390f35b61011e7f000000000000000000000000000000000000000000000000000000000000000081565b6040516001600160a01b0390911681526020016100ee565b6100e4610144366004610862565b60006020819052908152604090205481565b6100e461016436600461087d565b610216565b61017c61017736600461087d565b505050565b005b6100e461018c366004610838565b610364565b61017c61019f3660046108b0565b6103b7565b61017c610547565b6100e46101ba366004610838565b610750565b6100e46103e881565b61011e7f000000000000000000000000000000000000000000000000000000000000000081565b61011e7f000000000000000000000000000000000000000000000000000000000000000081565b600080670de0b6b3a76400007f00000000000000000000000000000000000000000000000000000000000000006001600160a01b031663da592ff9866040518263ffffffff1660e01b815260040161027091815260200190565b602060405180830381865afa15801561028d573d6000803e3d6000fd5b505050506040513d601f19601f820116820180604052508101906102b191906108dc565b7f00000000000000000000000000000000000000000000000000000000000000006001600160a01b031663d4e514006040518163ffffffff1660e01b8152600401602060405180830381865afa15801561030f573d6000803e3d6000fd5b505050506040513d601f19601f8201168201806040525081019061033391906108dc565b61033d8888610750565b610347919061090b565b610351919061090b565b61035b9190610922565b95945050505050565b60006103708383610786565b6001600160a01b0384166000908152602081815260408083208490556001825280832093835292905281812054428252919020546103ae9190610944565b90505b92915050565b6040516398995e6760e01b8152336004820152602481018490527f00000000000000000000000000000000000000000000000000000000000000006001600160a01b0316906398995e6790604401602060405180830381865afa158015610422573d6000803e3d6000fd5b505050506040513d601f19601f820116820180604052508101906104469190610957565b61048e5760405162461bcd60e51b8152602060048201526014602482015273596f7520617265206e6f7420656c696769626c6560601b60448201526064015b60405180910390fd5b600061049b338584610216565b336000908152602081905260409020849055905060405163a9059cbb60e01b8152336004820152602481018290527f00000000000000000000000000000000000000000000000000000000000000006001600160a01b03169063a9059cbb906044016020604051808303816000875af115801561051c573d6000803e3d6000fd5b505050506040513d601f19601f820116820180604052508101906105409190610957565b5050505050565b6040516370a0823160e01b81523360048201526000907f00000000000000000000000000000000000000000000000000000000000000006001600160a01b0316906370a0823190602401602060405180830381865afa1580156105ae573d6000803e3d6000fd5b505050506040513d601f19601f820116820180604052508101906105d291906108dc565b116106295760405162461bcd60e51b815260206004820152602160248201527f596f7520646f6e27742068617665207375666669656e7420524220546f6b656e6044820152607360f81b6064820152608401610485565b6040516370a0823160e01b81523360048201526001600160a01b037f000000000000000000000000000000000000000000000000000000000000000081169163d004f0f7917f000000000000000000000000000000000000000000000000000000000000000091908216906370a0823190602401602060405180830381865afa1580156106ba573d6000803e3d6000fd5b505050506040513d601f19601f820116820180604052508101906106de91906108dc565b6040516001600160e01b031960e085901b1681526001600160a01b03909216600483015260248201526044016020604051808303816000875af1158015610729573d6000803e3d6000fd5b505050506040513d601f19601f8201168201806040525081019061074d91906108dc565b50565b60008061075d8484610364565b9050620186a06000816107726103e88561090b565b61077c9190610922565b9695505050505050565b604051630488c48d60e21b81526001600160a01b038381166004830152602482018390526000917f000000000000000000000000000000000000000000000000000000000000000090911690631223123490604401602060405180830381865afa1580156107f8573d6000803e3d6000fd5b505050506040513d601f19601f820116820180604052508101906103ae91906108dc565b80356001600160a01b038116811461083357600080fd5b919050565b6000806040838503121561084b57600080fd5b6108548361081c565b946020939093013593505050565b60006020828403121561087457600080fd5b6103ae8261081c565b60008060006060848603121561089257600080fd5b61089b8461081c565b95602085013595506040909401359392505050565b6000806000606084860312156108c557600080fd5b505081359360208301359350604090920135919050565b6000602082840312156108ee57600080fd5b5051919050565b634e487b7160e01b600052601160045260246000fd5b80820281158282048414176103b1576103b16108f5565b60008261093f57634e487b7160e01b600052601260045260246000fd5b500490565b818103818111156103b1576103b16108f5565b60006020828403121561096957600080fd5b8151801515811461097957600080fd5b939250505056fea26469706673582212205b2fd5f469f409ce9b62c24c9c63ccfbcb43c8cd726286d8dfb2188edaff66ca64736f6c63430008180033","linkReferences":{}},"methodIdentifiers":{"SCALING_FACTOR()":"ef4cadc5","calculateReward(address,uint256,uint256)":"2c32c360","calculateSharesOfUser(address,uint256)":"c88fbe93","claimReward(uint256,uint256,uint256)":"7388e485","createMockData(address,uint256,uint256)":"4314d667","i_marketplace()":"f4d3ad34","i_rbToken()":"f4cb3dd6","pool()":"16f0115b","s_startingTime(address)":"28d1c5b9","s_userStepsAtMoment(address,uint256)":"01bc82a5","swaprbToken()":"a24f4f40","totalStepsInPeriod_ByUser(address,uint256)":"5725c410"},"id":28}