{"abi":[{"type":"constructor","inputs":[{"name":"initialSupply","type":"uint256","internalType":"uint256"}],"stateMutability":"nonpayable"},{"type":"function","name":"allowance","inputs":[{"name":"owner","type":"address","internalType":"address"},{"name":"spender","type":"address","internalType":"address"}],"outputs":[{"name":"","type":"uint256","internalType":"uint256"}],"stateMutability":"view"},{"type":"function","name":"approve","inputs":[{"name":"spender","type":"address","internalType":"address"},{"name":"value","type":"uint256","internalType":"uint256"}],"outputs":[{"name":"","type":"bool","internalType":"bool"}],"stateMutability":"nonpayable"},{"type":"function","name":"balanceOf","inputs":[{"name":"account","type":"address","internalType":"address"}],"outputs":[{"name":"","type":"uint256","internalType":"uint256"}],"stateMutability":"view"},{"type":"function","name":"decimals","inputs":[],"outputs":[{"name":"","type":"uint8","internalType":"uint8"}],"stateMutability":"view"},{"type":"function","name":"mint","inputs":[{"name":"_address","type":"address","internalType":"address"},{"name":"_amount","type":"uint256","internalType":"uint256"}],"outputs":[],"stateMutability":"nonpayable"},{"type":"function","name":"mintRewards","inputs":[{"name":"account","type":"address","internalType":"address"},{"name":"amount","type":"uint256","internalType":"uint256"}],"outputs":[],"stateMutability":"nonpayable"},{"type":"function","name":"name","inputs":[],"outputs":[{"name":"","type":"string","internalType":"string"}],"stateMutability":"view"},{"type":"function","name":"owner","inputs":[],"outputs":[{"name":"","type":"address","internalType":"address"}],"stateMutability":"view"},{"type":"function","name":"renounceOwnership","inputs":[],"outputs":[],"stateMutability":"nonpayable"},{"type":"function","name":"safeTransfer","inputs":[{"name":"to","type":"address","internalType":"address"},{"name":"amount","type":"uint256","internalType":"uint256"}],"outputs":[],"stateMutability":"nonpayable"},{"type":"function","name":"symbol","inputs":[],"outputs":[{"name":"","type":"string","internalType":"string"}],"stateMutability":"view"},{"type":"function","name":"totalSupply","inputs":[],"outputs":[{"name":"","type":"uint256","internalType":"uint256"}],"stateMutability":"view"},{"type":"function","name":"transfer","inputs":[{"name":"to","type":"address","internalType":"address"},{"name":"value","type":"uint256","internalType":"uint256"}],"outputs":[{"name":"","type":"bool","internalType":"bool"}],"stateMutability":"nonpayable"},{"type":"function","name":"transferFrom","inputs":[{"name":"from","type":"address","internalType":"address"},{"name":"to","type":"address","internalType":"address"},{"name":"value","type":"uint256","internalType":"uint256"}],"outputs":[{"name":"","type":"bool","internalType":"bool"}],"stateMutability":"nonpayable"},{"type":"function","name":"transferOwnership","inputs":[{"name":"newOwner","type":"address","internalType":"address"}],"outputs":[],"stateMutability":"nonpayable"},{"type":"event","name":"Approval","inputs":[{"name":"owner","type":"address","indexed":true,"internalType":"address"},{"name":"spender","type":"address","indexed":true,"internalType":"address"},{"name":"value","type":"uint256","indexed":false,"internalType":"uint256"}],"anonymous":false},{"type":"event","name":"OwnershipTransferred","inputs":[{"name":"previousOwner","type":"address","indexed":true,"internalType":"address"},{"name":"newOwner","type":"address","indexed":true,"internalType":"address"}],"anonymous":false},{"type":"event","name":"Transfer","inputs":[{"name":"from","type":"address","indexed":true,"internalType":"address"},{"name":"to","type":"address","indexed":true,"internalType":"address"},{"name":"value","type":"uint256","indexed":false,"internalType":"uint256"}],"anonymous":false},{"type":"error","name":"ERC20InsufficientAllowance","inputs":[{"name":"spender","type":"address","internalType":"address"},{"name":"allowance","type":"uint256","internalType":"uint256"},{"name":"needed","type":"uint256","internalType":"uint256"}]},{"type":"error","name":"ERC20InsufficientBalance","inputs":[{"name":"sender","type":"address","internalType":"address"},{"name":"balance","type":"uint256","internalType":"uint256"},{"name":"needed","type":"uint256","internalType":"uint256"}]},{"type":"error","name":"ERC20InvalidApprover","inputs":[{"name":"approver","type":"address","internalType":"address"}]},{"type":"error","name":"ERC20InvalidReceiver","inputs":[{"name":"receiver","type":"address","internalType":"address"}]},{"type":"error","name":"ERC20InvalidSender","inputs":[{"name":"sender","type":"address","internalType":"address"}]},{"type":"error","name":"ERC20InvalidSpender","inputs":[{"name":"spender","type":"address","internalType":"address"}]},{"type":"error","name":"OwnableInvalidOwner","inputs":[{"name":"owner","type":"address","internalType":"address"}]},{"type":"error","name":"OwnableUnauthorizedAccount","inputs":[{"name":"account","type":"address","internalType":"address"}]}],"bytecode":{"object":"0x60806040523480156200001157600080fd5b5060405162000d7f38038062000d7f8339810160408190526200003491620002aa565b336040518060400160405280600b81526020016a293ab7213937aa37b5b2b760a91b8152506040518060400160405280600381526020016214909560ea1b81525081600390816200008691906200036b565b5060046200009582826200036b565b5050506001600160a01b038116620000c857604051631e4fbdf760e01b8152600060048201526024015b60405180910390fd5b620000d381620000e7565b50620000e0338262000139565b506200045f565b600580546001600160a01b038381166001600160a01b0319831681179093556040519116919082907f8be0079c531659141344cd1fd0a4f28419497f9722a3daafe3b4186f6b6457e090600090a35050565b6001600160a01b038216620001655760405163ec442f0560e01b815260006004820152602401620000bf565b620001736000838362000177565b5050565b6001600160a01b038316620001a65780600260008282546200019a919062000437565b909155506200021a9050565b6001600160a01b03831660009081526020819052604090205481811015620001fb5760405163391434e360e21b81526001600160a01b03851660048201526024810182905260448101839052606401620000bf565b6001600160a01b03841660009081526020819052604090209082900390555b6001600160a01b038216620002385760028054829003905562000257565b6001600160a01b03821660009081526020819052604090208054820190555b816001600160a01b0316836001600160a01b03167fddf252ad1be2c89b69c2b068fc378daa952ba7f163c4a11628f55a4df523b3ef836040516200029d91815260200190565b60405180910390a3505050565b600060208284031215620002bd57600080fd5b5051919050565b634e487b7160e01b600052604160045260246000fd5b600181811c90821680620002ef57607f821691505b6020821081036200031057634e487b7160e01b600052602260045260246000fd5b50919050565b601f82111562000366576000816000526020600020601f850160051c81016020861015620003415750805b601f850160051c820191505b8181101562000362578281556001016200034d565b5050505b505050565b81516001600160401b03811115620003875762000387620002c4565b6200039f81620003988454620002da565b8462000316565b602080601f831160018114620003d75760008415620003be5750858301515b600019600386901b1c1916600185901b17855562000362565b600085815260208120601f198616915b828110156200040857888601518255948401946001909101908401620003e7565b5085821015620004275787850151600019600388901b60f8161c191681555b5050505050600190811b01905550565b808201808211156200045957634e487b7160e01b600052601160045260246000fd5b92915050565b610910806200046f6000396000f3fe608060405234801561001057600080fd5b50600436106100f55760003560e01c80636a20de921161009757806395d89b411161006657806395d89b41146101e3578063a9059cbb146101eb578063dd62ed3e146101fe578063f2fde38b1461023757600080fd5b80636a20de921461016f57806370a0823114610197578063715018a6146101c05780638da5cb5b146101c857600080fd5b806323b872dd116100d357806323b872dd1461014d578063313ce5671461016057806340c10f191461016f578063423f6cef1461018457600080fd5b806306fdde03146100fa578063095ea7b31461011857806318160ddd1461013b575b600080fd5b61010261024a565b60405161010f9190610759565b60405180910390f35b61012b6101263660046107c4565b6102dc565b604051901515815260200161010f565b6002545b60405190815260200161010f565b61012b61015b3660046107ee565b6102f6565b6040516012815260200161010f565b61018261017d3660046107c4565b61031a565b005b6101826101923660046107c4565b610330565b61013f6101a536600461082a565b6001600160a01b031660009081526020819052604090205490565b610182610347565b6005546040516001600160a01b03909116815260200161010f565b61010261035b565b61012b6101f93660046107c4565b61036a565b61013f61020c36600461084c565b6001600160a01b03918216600090815260016020908152604080832093909416825291909152205490565b61018261024536600461082a565b610378565b6060600380546102599061087f565b80601f01602080910402602001604051908101604052809291908181526020018280546102859061087f565b80156102d25780601f106102a7576101008083540402835291602001916102d2565b820191906000526020600020905b8154815290600101906020018083116102b557829003601f168201915b5050505050905090565b6000336102ea8185856103bb565b60019150505b92915050565b6000336103048582856103c8565b61030f858585610446565b506001949350505050565b6103226104a5565b61032c82826104d2565b5050565b6103386104a5565b610342828261036a565b505050565b61034f6104a5565b6103596000610508565b565b6060600480546102599061087f565b6000336102ea818585610446565b6103806104a5565b6001600160a01b0381166103af57604051631e4fbdf760e01b8152600060048201526024015b60405180910390fd5b6103b881610508565b50565b610342838383600161055a565b6001600160a01b038381166000908152600160209081526040808320938616835292905220546000198114610440578181101561043157604051637dc7a0d960e11b81526001600160a01b038416600482015260248101829052604481018390526064016103a6565b6104408484848403600061055a565b50505050565b6001600160a01b03831661047057604051634b637e8f60e11b8152600060048201526024016103a6565b6001600160a01b03821661049a5760405163ec442f0560e01b8152600060048201526024016103a6565b61034283838361062f565b6005546001600160a01b031633146103595760405163118cdaa760e01b81523360048201526024016103a6565b6001600160a01b0382166104fc5760405163ec442f0560e01b8152600060048201526024016103a6565b61032c6000838361062f565b600580546001600160a01b038381166001600160a01b0319831681179093556040519116919082907f8be0079c531659141344cd1fd0a4f28419497f9722a3daafe3b4186f6b6457e090600090a35050565b6001600160a01b0384166105845760405163e602df0560e01b8152600060048201526024016103a6565b6001600160a01b0383166105ae57604051634a1406b160e11b8152600060048201526024016103a6565b6001600160a01b038085166000908152600160209081526040808320938716835292905220829055801561044057826001600160a01b0316846001600160a01b03167f8c5be1e5ebec7d5bd14f71427d1e84f3dd0314c0f7b2291e5b200ac8c7c3b9258460405161062191815260200190565b60405180910390a350505050565b6001600160a01b03831661065a57806002600082825461064f91906108b9565b909155506106cc9050565b6001600160a01b038316600090815260208190526040902054818110156106ad5760405163391434e360e21b81526001600160a01b038516600482015260248101829052604481018390526064016103a6565b6001600160a01b03841660009081526020819052604090209082900390555b6001600160a01b0382166106e857600280548290039055610707565b6001600160a01b03821660009081526020819052604090208054820190555b816001600160a01b0316836001600160a01b03167fddf252ad1be2c89b69c2b068fc378daa952ba7f163c4a11628f55a4df523b3ef8360405161074c91815260200190565b60405180910390a3505050565b60006020808352835180602085015260005b818110156107875785810183015185820160400152820161076b565b506000604082860101526040601f19601f8301168501019250505092915050565b80356001600160a01b03811681146107bf57600080fd5b919050565b600080604083850312156107d757600080fd5b6107e0836107a8565b946020939093013593505050565b60008060006060848603121561080357600080fd5b61080c846107a8565b925061081a602085016107a8565b9150604084013590509250925092565b60006020828403121561083c57600080fd5b610845826107a8565b9392505050565b6000806040838503121561085f57600080fd5b610868836107a8565b9150610876602084016107a8565b90509250929050565b600181811c9082168061089357607f821691505b6020821081036108b357634e487b7160e01b600052602260045260246000fd5b50919050565b808201808211156102f057634e487b7160e01b600052601160045260246000fdfea264697066735822122017659909365f375f1d63119c8525aa38c3b08f9dbb48aff1e743fd07e8a45e5f64736f6c63430008180033","linkReferences":{}},"methodIdentifiers":{"allowance(address,address)":"dd62ed3e","approve(address,uint256)":"095ea7b3","balanceOf(address)":"70a08231","decimals()":"313ce567","mint(address,uint256)":"40c10f19","mintRewards(address,uint256)":"6a20de92","name()":"06fdde03","owner()":"8da5cb5b","renounceOwnership()":"715018a6","safeTransfer(address,uint256)":"423f6cef","symbol()":"95d89b41","totalSupply()":"18160ddd","transfer(address,uint256)":"a9059cbb","transferFrom(address,address,uint256)":"23b872dd","transferOwnership(address)":"f2fde38b"},"id":40}